:020000020000FC
:0200000008C036
:020004002DC00D
:1000100030C050E267EAEFD052E260E4ECD053E245
:1000200060E3E9D052E36FE7E6D053E369E0E3D061
:1000300050E36AE0E0D0F0E0E0E0EBD0D32FD0E096
:10004000D395F894C6E0002701BF24D1002703E030
:1000500000BB01E002BB789405E00ABF8895FCCFA5
:10006000F89430D020FF58D133D021FF2BD1789491
:100070001895F8940BD001B70064086001BF8FEFAA
:1000800086D08FEF84D009D07894189501B10460A0
:1000900001B902B10B7F02B9089501B10B7F01B91B
:1000A000089501B1016001B902B10E7F02B908954E
:1000B00001B10E7F01B9089501B10B7F01B920B1E3
:1000C0002470089501B10E7F01B920B12170089507
:1000D00001B10D7F01B920B12270089501B1026014
:1000E00001B902B10D7F02B9089501B10D7F01B9C7
:1000F0000895D3DFDDDF0000C9DF0000D2DF00009C
:100100000895C4DF0000D4DF0000C7DF089547FD75
:10011000C4DF47FFBBDFCCDF0000C3DF0895000072
:10012000C7DF0000C9DF002722FD01E0202F00000B
:10013000B8DF089518E01A95EADF440F1030D9F7B8
:10014000ACDF089518E077271A95E9DF770F722B57
:100150001030D1F7372F0895462F18E0BFDF84E025
:1001600016D0000000001A9540FDBFDF40FFB6DF4B
:10017000469583E00CD0000000000000103099F795
:100180000000000000000000B0DF089508958A9587
:10019000000000008030D9F708959A958A950000F4
:1001A000000000000000000000000000000000004F
:1001B000000000000000000000000000000000003F
:1001C000000000000000803049F7903031F70895BA
:1001D00090DF40E3AFDFA3DF8AE0D9DF452FAADF5E
:1001E0009EDF87DF41E3A6DF9ADF85E0D0DFAADF6D
:1001F00096DF87DF08957DDF40E39CDF90DF452FAA
:1002000099DF8DDF462F96DF8ADF7BDF84E1BFDF5A
:1002100008956FDF40EA8EDF82DF8AE0B8DF4F2F7C
:1002200089DF7DDF4E2F86DF7ADF63DF41EA82DF01
:1002300076DF85E0ACDF86DF72DF63DF089559DFAC
:1002400040EA78DF6CDF8AE0A2DF4F2F73DF67DFE1
:100250004E2F70DF64DF462F6DDF61DF52DF0895C0
:10026000B0E0A0E446DF42EA65DF59DF8AE08FDFD5
:1002700042E060DF54DF3DDF43EA5CDF50DF85E0D2
:1002800086DF17E05FDF4BDF3D931A951030D1F723
:1002900038DF0895A895002701BF01B77C2F77703C
:1002A000072B7C2F770F770F7072072B01BF01B7D9
:1002B0000064077F01BF0895CA95C7FDC9E06C2F90
:1002C000E9DF0895F9DFED2FD39568E5B8DF8FEF0B
:1002D0005EDFED2FD39568E5B2DF8FEF58DFED2FAE
:1002E000D39568E5ACDF8FEF52DFED2FD39568E54E
:1002F000A6DF8FEF4CDFED2FD39568E5A0DF8FEF02
:1003000046DFED2FD39568E59ADF8FEF40DFED2FC5
:10031000D3956AE094DF08958FEFD4DE2130E9F7BA
:1003200036DFC9E06C2FB6DF10E0F0E0E0E01395B7
:0E033000E3956FDF632F10DF1F3FC9F70895BD
:00000001FF
