:020000020000FC
:0200000008C036
:020004002DC00D
:1000100030C050E267EAF0D052E260E4EDD053E243
:1000200060E3EAD052E36FE7E7D053E369E0E4D05E
:1000300050E36AE0E1D0F0E0E0E0ECD0D32FD0E094
:10004000D395F894C6E0002701BF25D1002703E02F
:1000500000BB01E002BB789405E00ABF8895FCCFA5
:10006000F89430D020FF59D133D021FF2CD178948F
:100070001895F8940BD001B70064086001BF8FEFAA
:1000800087D08FEF85D009D07894189501B104609E
:1000900001B902B10B7F02B9089501B10B7F01B91B
:1000A000089501B1016001B902B10E7F02B908954E
:1000B00001B10E7F01B9089501B10B7F01B920B1E3
:1000C0002470089501B10E7F01B920B12170089507
:1000D00001B10D7F01B920B12270089501B1026014
:1000E00001B902B10D7F02B9089501B10D7F01B9C7
:1000F0000895D3DFDDDF0000C9DF0000D2DF00009C
:100100000895C4DF0000D4DF0000C7DF089547FD75
:10011000C4DF47FFBBDFCCDF0000C3DF0895000072
:10012000C7DF0000C9DF002722FD01E0202F00000B
:10013000B8DF089518E01A95EADF440F1030D9F7B8
:10014000ACDF089518E077271A95E9DF770F722B57
:100150001030D1F7372F0895462F18E0BFDF84E025
:1001600017D0000000001A9540FDBFDF40FFB6DF4A
:10017000469583E00DD0000000000000103099F794
:100180000000000000000000B0DF089500000895A6
:100190008A95000000008030D9F708959A958A95D5
:1001A000000000000000000000000000000000004F
:1001B000000000000000000000000000000000003F
:1001C0000000000000000000803049F7903031F757
:1001D00008958FDF40E3AEDFA2DF8AE0D9DF452F4D
:1001E000A9DF9DDF86DF41E3A5DF99DF85E0D0DF72
:1001F000A9DF95DF86DF08957CDF40E39BDF8FDF9B
:10020000452F98DF8CDF462F95DF89DF7ADF84E189
:10021000BFDF08956EDF40EA8DDF81DF8AE0B8DF5F
:100220004F2F88DF7CDF4E2F85DF79DF62DF41EAE9
:1002300081DF75DF85E0ACDF85DF71DF62DF089588
:1002400058DF40EA77DF6BDF8AE0A2DF4F2F72DFF3
:1002500066DF4E2F6FDF63DF462F6CDF60DF51DF1D
:100260000895B0E0A0E445DF42EA64DF58DF8AE0A9
:100270008FDF42E05FDF53DF3CDF43EA5BDF4FDFCE
:1002800085E086DF17E05EDF4ADF3D931A95103088
:10029000D1F737DF0895A895002701BF01B77C2F5C
:1002A0007770072B7C2F770F770F7072072B01BFAA
:1002B00001B70064077F01BF0895CA95C7FDC9E073
:1002C0006C2FE9DF0895F9DFED2FD39568E5B8DFEE
:1002D0008FEF5EDFED2FD39568E5B2DF8FEF58DF4C
:1002E000ED2FD39568E5ACDF8FEF52DFED2FD3957F
:1002F00068E5A6DF8FEF4CDFED2FD39568E5A0DF33
:100300008FEF46DFED2FD39568E59ADF8FEF40DF63
:10031000ED2FD3956AE094DF08958FEFD3DE21307F
:10032000E9F736DFC9E06C2FB6DF10E0F0E0E0E07F
:100330001395E3956FDF632F0FDF1F3FC9F7089514
:00000001FF
